{
  "_format": "hh-sol-artifact-1",
  "contractName": "COSTToken",
  "sourceName": "contracts/COSTToken.sol",
  "abi": [
    {
      "inputs": [],
      "stateMutability": "nonpayable",
      "type": "constructor"
    },
    {
      "inputs": [
        {
          "internalType": "address",
          "name": "spender",
          "type": "address"
        },
        {
          "internalType": "uint256",
          "name": "allowance",
          "type": "uint256"
        },
        {
          "internalType": "uint256",
          "name": "needed",
          "type": "uint256"
        }
      ],
      "name": "ERC20InsufficientAllowance",
      "type": "error"
    },
    {
      "inputs": [
        {
          "internalType": "address",
          "name": "sender",
          "type": "address"
        },
        {
          "internalType": "uint256",
          "name": "balance",
          "type": "uint256"
        },
        {
          "internalType": "uint256",
          "name": "needed",
          "type": "uint256"
        }
      ],
      "name": "ERC20InsufficientBalance",
      "type": "error"
    },
    {
      "inputs": [
        {
          "internalType": "address",
          "name": "approver",
          "type": "address"
        }
      ],
      "name": "ERC20InvalidApprover",
      "type": "error"
    },
    {
      "inputs": [
        {
          "internalType": "address",
          "name": "receiver",
          "type": "address"
        }
      ],
      "name": "ERC20InvalidReceiver",
      "type": "error"
    },
    {
      "inputs": [
        {
          "internalType": "address",
          "name": "sender",
          "type": "address"
        }
      ],
      "name": "ERC20InvalidSender",
      "type": "error"
    },
    {
      "inputs": [
        {
          "internalType": "address",
          "name": "spender",
          "type": "address"
        }
      ],
      "name": "ERC20InvalidSpender",
      "type": "error"
    },
    {
      "inputs": [],
      "name": "EnforcedPause",
      "type": "error"
    },
    {
      "inputs": [],
      "name": "ExpectedPause",
      "type": "error"
    },
    {
      "inputs": [
        {
          "internalType": "address",
          "name": "owner",
          "type": "address"
        }
      ],
      "name": "OwnableInvalidOwner",
      "type": "error"
    },
    {
      "inputs": [
        {
          "internalType": "address",
          "name": "account",
          "type": "address"
        }
      ],
      "name": "OwnableUnauthorizedAccount",
      "type": "error"
    },
    {
      "anonymous": false,
      "inputs": [
        {
          "indexed": true,
          "internalType": "address",
          "name": "owner",
          "type": "address"
        },
        {
          "indexed": true,
          "internalType": "address",
          "name": "spender",
          "type": "address"
        },
        {
          "indexed": false,
          "internalType": "uint256",
          "name": "value",
          "type": "uint256"
        }
      ],
      "name": "Approval",
      "type": "event"
    },
    {
      "anonymous": false,
      "inputs": [
        {
          "indexed": true,
          "internalType": "address",
          "name": "previousOwner",
          "type": "address"
        },
        {
          "indexed": true,
          "internalType": "address",
          "name": "newOwner",
          "type": "address"
        }
      ],
      "name": "OwnershipTransferred",
      "type": "event"
    },
    {
      "anonymous": false,
      "inputs": [
        {
          "indexed": false,
          "internalType": "address",
          "name": "account",
          "type": "address"
        }
      ],
      "name": "Paused",
      "type": "event"
    },
    {
      "anonymous": false,
      "inputs": [
        {
          "indexed": true,
          "internalType": "address",
          "name": "from",
          "type": "address"
        },
        {
          "indexed": false,
          "internalType": "uint256",
          "name": "amount",
          "type": "uint256"
        }
      ],
      "name": "TokensBurned",
      "type": "event"
    },
    {
      "anonymous": false,
      "inputs": [
        {
          "indexed": true,
          "internalType": "address",
          "name": "to",
          "type": "address"
        },
        {
          "indexed": false,
          "internalType": "uint256",
          "name": "amount",
          "type": "uint256"
        }
      ],
      "name": "TokensMinted",
      "type": "event"
    },
    {
      "anonymous": false,
      "inputs": [
        {
          "indexed": true,
          "internalType": "address",
          "name": "from",
          "type": "address"
        },
        {
          "indexed": true,
          "internalType": "address",
          "name": "to",
          "type": "address"
        },
        {
          "indexed": false,
          "internalType": "uint256",
          "name": "value",
          "type": "uint256"
        }
      ],
      "name": "Transfer",
      "type": "event"
    },
    {
      "anonymous": false,
      "inputs": [
        {
          "indexed": false,
          "internalType": "address",
          "name": "account",
          "type": "address"
        }
      ],
      "name": "Unpaused",
      "type": "event"
    },
    {
      "inputs": [],
      "name": "MAX_SUPPLY",
      "outputs": [
        {
          "internalType": "uint256",
          "name": "",
          "type": "uint256"
        }
      ],
      "stateMutability": "view",
      "type": "function"
    },
    {
      "inputs": [
        {
          "internalType": "address",
          "name": "owner",
          "type": "address"
        },
        {
          "internalType": "address",
          "name": "spender",
          "type": "address"
        }
      ],
      "name": "allowance",
      "outputs": [
        {
          "internalType": "uint256",
          "name": "",
          "type": "uint256"
        }
      ],
      "stateMutability": "view",
      "type": "function"
    },
    {
      "inputs": [
        {
          "internalType": "address",
          "name": "spender",
          "type": "address"
        },
        {
          "internalType": "uint256",
          "name": "value",
          "type": "uint256"
        }
      ],
      "name": "approve",
      "outputs": [
        {
          "internalType": "bool",
          "name": "",
          "type": "bool"
        }
      ],
      "stateMutability": "nonpayable",
      "type": "function"
    },
    {
      "inputs": [
        {
          "internalType": "address",
          "name": "account",
          "type": "address"
        }
      ],
      "name": "balanceOf",
      "outputs": [
        {
          "internalType": "uint256",
          "name": "",
          "type": "uint256"
        }
      ],
      "stateMutability": "view",
      "type": "function"
    },
    {
      "inputs": [
        {
          "internalType": "address[]",
          "name": "recipients",
          "type": "address[]"
        },
        {
          "internalType": "uint256[]",
          "name": "amounts",
          "type": "uint256[]"
        }
      ],
      "name": "batchTransfer",
      "outputs": [],
      "stateMutability": "nonpayable",
      "type": "function"
    },
    {
      "inputs": [
        {
          "internalType": "uint256",
          "name": "amount",
          "type": "uint256"
        }
      ],
      "name": "burn",
      "outputs": [],
      "stateMutability": "nonpayable",
      "type": "function"
    },
    {
      "inputs": [
        {
          "internalType": "address",
          "name": "from",
          "type": "address"
        },
        {
          "internalType": "uint256",
          "name": "amount",
          "type": "uint256"
        }
      ],
      "name": "burnFrom",
      "outputs": [],
      "stateMutability": "nonpayable",
      "type": "function"
    },
    {
      "inputs": [],
      "name": "decimals",
      "outputs": [
        {
          "internalType": "uint8",
          "name": "",
          "type": "uint8"
        }
      ],
      "stateMutability": "view",
      "type": "function"
    },
    {
      "inputs": [
        {
          "internalType": "address",
          "name": "token",
          "type": "address"
        },
        {
          "internalType": "uint256",
          "name": "amount",
          "type": "uint256"
        }
      ],
      "name": "emergencyWithdraw",
      "outputs": [],
      "stateMutability": "nonpayable",
      "type": "function"
    },
    {
      "inputs": [],
      "name": "getTokenInfo",
      "outputs": [
        {
          "internalType": "string",
          "name": "tokenName",
          "type": "string"
        },
        {
          "internalType": "string",
          "name": "tokenSymbol",
          "type": "string"
        },
        {
          "internalType": "uint8",
          "name": "tokenDecimals",
          "type": "uint8"
        },
        {
          "internalType": "uint256",
          "name": "tokenTotalSupply",
          "type": "uint256"
        },
        {
          "internalType": "uint256",
          "name": "tokenMaxSupply",
          "type": "uint256"
        },
        {
          "internalType": "bool",
          "name": "isPaused",
          "type": "bool"
        }
      ],
      "stateMutability": "view",
      "type": "function"
    },
    {
      "inputs": [
        {
          "internalType": "address",
          "name": "to",
          "type": "address"
        },
        {
          "internalType": "uint256",
          "name": "amount",
          "type": "uint256"
        }
      ],
      "name": "mint",
      "outputs": [],
      "stateMutability": "nonpayable",
      "type": "function"
    },
    {
      "inputs": [],
      "name": "name",
      "outputs": [
        {
          "internalType": "string",
          "name": "",
          "type": "string"
        }
      ],
      "stateMutability": "view",
      "type": "function"
    },
    {
      "inputs": [],
      "name": "owner",
      "outputs": [
        {
          "internalType": "address",
          "name": "",
          "type": "address"
        }
      ],
      "stateMutability": "view",
      "type": "function"
    },
    {
      "inputs": [],
      "name": "pause",
      "outputs": [],
      "stateMutability": "nonpayable",
      "type": "function"
    },
    {
      "inputs": [],
      "name": "paused",
      "outputs": [
        {
          "internalType": "bool",
          "name": "",
          "type": "bool"
        }
      ],
      "stateMutability": "view",
      "type": "function"
    },
    {
      "inputs": [],
      "name": "renounceOwnership",
      "outputs": [],
      "stateMutability": "nonpayable",
      "type": "function"
    },
    {
      "inputs": [],
      "name": "symbol",
      "outputs": [
        {
          "internalType": "string",
          "name": "",
          "type": "string"
        }
      ],
      "stateMutability": "view",
      "type": "function"
    },
    {
      "inputs": [],
      "name": "totalSupply",
      "outputs": [
        {
          "internalType": "uint256",
          "name": "",
          "type": "uint256"
        }
      ],
      "stateMutability": "view",
      "type": "function"
    },
    {
      "inputs": [
        {
          "internalType": "address",
          "name": "to",
          "type": "address"
        },
        {
          "internalType": "uint256",
          "name": "value",
          "type": "uint256"
        }
      ],
      "name": "transfer",
      "outputs": [
        {
          "internalType": "bool",
          "name": "",
          "type": "bool"
        }
      ],
      "stateMutability": "nonpayable",
      "type": "function"
    },
    {
      "inputs": [
        {
          "internalType": "address",
          "name": "from",
          "type": "address"
        },
        {
          "internalType": "address",
          "name": "to",
          "type": "address"
        },
        {
          "internalType": "uint256",
          "name": "value",
          "type": "uint256"
        }
      ],
      "name": "transferFrom",
      "outputs": [
        {
          "internalType": "bool",
          "name": "",
          "type": "bool"
        }
      ],
      "stateMutability": "nonpayable",
      "type": "function"
    },
    {
      "inputs": [
        {
          "internalType": "address",
          "name": "newOwner",
          "type": "address"
        }
      ],
      "name": "transferOwnership",
      "outputs": [],
      "stateMutability": "nonpayable",
      "type": "function"
    },
    {
      "inputs": [],
      "name": "unpause",
      "outputs": [],
      "stateMutability": "nonpayable",
      "type": "function"
    }
  ],
  "bytecode": "0x60806040523480156200001157600080fd5b50336040518060400160405280601f81526020017f436f6d6d757465736861726520546563686e6f6c6f6769657320546f6b656e008152506040518060400160405280600481526020016310d3d4d560e21b8152508160039081620000779190620003ad565b506004620000868282620003ad565b5050506001600160a01b038116620000b957604051631e4fbdf760e01b8152600060048201526024015b60405180910390fd5b620000c481620000f5565b50620000ef33620000d86012600a6200058e565b620000e9906402cb417800620005a6565b62000147565b620005d6565b600580546001600160a01b038381166001600160a01b0319831681179093556040519116919082907f8be0079c531659141344cd1fd0a4f28419497f9722a3daafe3b4186f6b6457e090600090a35050565b6001600160a01b038216620001735760405163ec442f0560e01b815260006004820152602401620000b0565b620001816000838362000185565b5050565b6200018f620001a1565b6200019c838383620001d6565b505050565b620001b5600554600160a01b900460ff1690565b15620001d45760405163d93c066560e01b815260040160405180910390fd5b565b6001600160a01b03831662000205578060026000828254620001f99190620005c0565b90915550620002799050565b6001600160a01b038316600090815260208190526040902054818110156200025a5760405163391434e360e21b81526001600160a01b03851660048201526024810182905260448101839052606401620000b0565b6001600160a01b03841660009081526020819052604090209082900390555b6001600160a01b0382166200029757600280548290039055620002b6565b6001600160a01b03821660009081526020819052604090208054820190555b816001600160a01b0316836001600160a01b03167fddf252ad1be2c89b69c2b068fc378daa952ba7f163c4a11628f55a4df523b3ef83604051620002fc91815260200190565b60405180910390a3505050565b634e487b7160e01b600052604160045260246000fd5b600181811c908216806200033457607f821691505b6020821081036200035557634e487b7160e01b600052602260045260246000fd5b50919050565b601f8211156200019c57600081815260208120601f850160051c81016020861015620003845750805b601f850160051c820191505b81811015620003a55782815560010162000390565b505050505050565b81516001600160401b03811115620003c957620003c962000309565b620003e181620003da84546200031f565b846200035b565b602080601f831160018114620004195760008415620004005750858301515b600019600386901b1c1916600185901b178555620003a5565b600085815260208120601f198616915b828110156200044a5788860151825594840194600190910190840162000429565b5085821015620004695787850151600019600388901b60f8161c191681555b5050505050600190811b01905550565b634e487b7160e01b600052601160045260246000fd5b600181815b80851115620004d0578160001904821115620004b457620004b462000479565b80851615620004c257918102915b93841c939080029062000494565b509250929050565b600082620004e95750600162000588565b81620004f85750600062000588565b81600181146200051157600281146200051c576200053c565b600191505062000588565b60ff84111562000530576200053062000479565b50506001821b62000588565b5060208310610133831016604e8410600b841016171562000561575081810a62000588565b6200056d83836200048f565b806000190482111562000584576200058462000479565b0290505b92915050565b60006200059f60ff841683620004d8565b9392505050565b808202811582820484141762000588576200058862000479565b8082018082111562000588576200058862000479565b61123080620005e66000396000f3fe608060405234801561001057600080fd5b50600436106101425760003560e01c8063715018a6116100b857806395ccea671161007c57806395ccea671461028c57806395d89b411461029f578063a9059cbb146102a7578063abb1dc44146102ba578063dd62ed3e146102d4578063f2fde38b146102e757600080fd5b8063715018a61461023b57806379cc6790146102435780638456cb591461025657806388d695b21461025e5780638da5cb5b1461027157600080fd5b806332cb6b0c1161010a57806332cb6b0c146101bc5780633f4ba83a146101d057806340c10f19146101da57806342966c68146101ed5780635c975abb1461020057806370a082311461021257600080fd5b806306fdde0314610147578063095ea7b31461016557806318160ddd1461018857806323b872dd1461019a578063313ce567146101ad575b600080fd5b61014f6102fa565b60405161015c9190610f28565b60405180910390f35b610178610173366004610f5e565b61038c565b604051901515815260200161015c565b6002545b60405190815260200161015c565b6101786101a8366004610f88565b6103a6565b6040516012815260200161015c565b61018c6c01431e0fae6d7217caa000000081565b6101d86103ca565b005b6101d86101e8366004610f5e565b6103dc565b6101d86101fb366004610fc4565b610500565b600554600160a01b900460ff16610178565b61018c610220366004610fdd565b6001600160a01b031660009081526020819052604090205490565b6101d86105a1565b6101d8610251366004610f5e565b6105b3565b6101d86106cd565b6101d861026c366004611044565b6106dd565b6005546040516001600160a01b03909116815260200161015c565b6101d861029a366004610f5e565b610857565b61014f61094e565b6101786102b5366004610f5e565b61095d565b6102c261096b565b60405161015c969594939291906110b0565b61018c6102e2366004611100565b6109b8565b6101d86102f5366004610fdd565b6109e3565b60606003805461030990611133565b80601f016020809104026020016040519081016040528092919081815260200182805461033590611133565b80156103825780601f1061035757610100808354040283529160200191610382565b820191906000526020600020905b81548152906001019060200180831161036557829003601f168201915b5050505050905090565b60003361039a818585610a21565b60019150505b92915050565b6000336103b4858285610a2e565b6103bf858585610a95565b506001949350505050565b6103d2610af4565b6103da610b21565b565b6103e4610af4565b6001600160a01b03821661043f5760405162461bcd60e51b815260206004820152601b60248201527f43616e6e6f74206d696e7420746f207a65726f2061646472657373000000000060448201526064015b60405180910390fd5b6c01431e0fae6d7217caa00000008161045760025490565b6104619190611183565b11156104af5760405162461bcd60e51b815260206004820152601760248201527f576f756c6420657863656564206d617820737570706c790000000000000000006044820152606401610436565b6104b98282610b76565b816001600160a01b03167f3f2c9d57c068687834f0de942a9babb9e5acab57d516d3480a3c16ee165a4273826040516104f491815260200190565b60405180910390a25050565b3360009081526020819052604090205481111561055f5760405162461bcd60e51b815260206004820152601c60248201527f496e73756666696369656e742062616c616e636520746f206275726e000000006044820152606401610436565b6105693382610bb0565b60405181815233907ffd38818f5291bf0bb3a2a48aadc06ba8757865d1dabd804585338aab3009dcb69060200160405180910390a250565b6105a9610af4565b6103da6000610be6565b6001600160a01b0382166106095760405162461bcd60e51b815260206004820152601d60248201527f43616e6e6f74206275726e2066726f6d207a65726f20616464726573730000006044820152606401610436565b600061061583336109b8565b9050818110156106675760405162461bcd60e51b815260206004820152601d60248201527f4275726e20616d6f756e74206578636565647320616c6c6f77616e63650000006044820152606401610436565b61067b83336106768585611196565b610a21565b6106858383610bb0565b826001600160a01b03167ffd38818f5291bf0bb3a2a48aadc06ba8757865d1dabd804585338aab3009dcb6836040516106c091815260200190565b60405180910390a2505050565b6106d5610af4565b6103da610c38565b8281146107255760405162461bcd60e51b8152602060048201526016602482015275082e4e4c2f2e640d8cadccee8d040dad2e6dac2e8c6d60531b6044820152606401610436565b8261076b5760405162461bcd60e51b8152602060048201526016602482015275139bc81c9958da5c1a595b9d1cc81c1c9bdd9a59195960521b6044820152606401610436565b60005b8381101561085057600085858381811061078a5761078a6111a9565b905060200201602081019061079f9190610fdd565b6001600160a01b0316036107f55760405162461bcd60e51b815260206004820152601f60248201527f43616e6e6f74207472616e7366657220746f207a65726f2061646472657373006044820152606401610436565b61083d85858381811061080a5761080a6111a9565b905060200201602081019061081f9190610fdd565b848484818110610831576108316111a9565b9050602002013561095d565b5080610848816111bf565b91505061076e565b5050505050565b61085f610af4565b306001600160a01b038316036108b75760405162461bcd60e51b815260206004820152601a60248201527f43616e6e6f74207769746864726177206f776e20746f6b656e730000000000006044820152606401610436565b816001600160a01b031663a9059cbb6108d86005546001600160a01b031690565b6040516001600160e01b031960e084901b1681526001600160a01b039091166004820152602481018490526044016020604051808303816000875af1158015610925573d6000803e3d6000fd5b505050506040513d601f19601f8201168201806040525081019061094991906111d8565b505050565b60606004805461030990611133565b60003361039a818585610a95565b60608060008060008061097c6102fa565b61098461094e565b60126002546005546c01431e0fae6d7217caa000000090600160a01b900460ff16949b939a50919850965094509092509050565b6001600160a01b03918216600090815260016020908152604080832093909416825291909152205490565b6109eb610af4565b6001600160a01b038116610a1557604051631e4fbdf760e01b815260006004820152602401610436565b610a1e81610be6565b50565b6109498383836001610c7b565b6000610a3a84846109b8565b9050600019811015610a8f5781811015610a8057604051637dc7a0d960e11b81526001600160a01b03841660048201526024810182905260448101839052606401610436565b610a8f84848484036000610c7b565b50505050565b6001600160a01b038316610abf57604051634b637e8f60e11b815260006004820152602401610436565b6001600160a01b038216610ae95760405163ec442f0560e01b815260006004820152602401610436565b610949838383610d50565b6005546001600160a01b031633146103da5760405163118cdaa760e01b8152336004820152602401610436565b610b29610d63565b6005805460ff60a01b191690557f5db9ee0a495bf2e6ff9c91a7834c1ba4fdd244a5e8aa4e537bd38aeae4b073aa335b6040516001600160a01b03909116815260200160405180910390a1565b6001600160a01b038216610ba05760405163ec442f0560e01b815260006004820152602401610436565b610bac60008383610d50565b5050565b6001600160a01b038216610bda57604051634b637e8f60e11b815260006004820152602401610436565b610bac82600083610d50565b600580546001600160a01b038381166001600160a01b0319831681179093556040519116919082907f8be0079c531659141344cd1fd0a4f28419497f9722a3daafe3b4186f6b6457e090600090a35050565b610c40610d8d565b6005805460ff60a01b1916600160a01b1790557f62e78cea01bee320cd4e420270b5ea74000d11b0c9f74754ebdbfc544b05a258610b593390565b6001600160a01b038416610ca55760405163e602df0560e01b815260006004820152602401610436565b6001600160a01b038316610ccf57604051634a1406b160e11b815260006004820152602401610436565b6001600160a01b0380851660009081526001602090815260408083209387168352929052208290558015610a8f57826001600160a01b0316846001600160a01b03167f8c5be1e5ebec7d5bd14f71427d1e84f3dd0314c0f7b2291e5b200ac8c7c3b92584604051610d4291815260200190565b60405180910390a350505050565b610d58610d8d565b610949838383610db8565b600554600160a01b900460ff166103da57604051638dfc202b60e01b815260040160405180910390fd5b600554600160a01b900460ff16156103da5760405163d93c066560e01b815260040160405180910390fd5b6001600160a01b038316610de3578060026000828254610dd89190611183565b90915550610e559050565b6001600160a01b03831660009081526020819052604090205481811015610e365760405163391434e360e21b81526001600160a01b03851660048201526024810182905260448101839052606401610436565b6001600160a01b03841660009081526020819052604090209082900390555b6001600160a01b038216610e7157600280548290039055610e90565b6001600160a01b03821660009081526020819052604090208054820190555b816001600160a01b0316836001600160a01b03167fddf252ad1be2c89b69c2b068fc378daa952ba7f163c4a11628f55a4df523b3ef83604051610ed591815260200190565b60405180910390a3505050565b6000815180845260005b81811015610f0857602081850181015186830182015201610eec565b506000602082860101526020601f19601f83011685010191505092915050565b602081526000610f3b6020830184610ee2565b9392505050565b80356001600160a01b0381168114610f5957600080fd5b919050565b60008060408385031215610f7157600080fd5b610f7a83610f42565b946020939093013593505050565b600080600060608486031215610f9d57600080fd5b610fa684610f42565b9250610fb460208501610f42565b9150604084013590509250925092565b600060208284031215610fd657600080fd5b5035919050565b600060208284031215610fef57600080fd5b610f3b82610f42565b60008083601f84011261100a57600080fd5b50813567ffffffffffffffff81111561102257600080fd5b6020830191508360208260051b850101111561103d57600080fd5b9250929050565b6000806000806040858703121561105a57600080fd5b843567ffffffffffffffff8082111561107257600080fd5b61107e88838901610ff8565b9096509450602087013591508082111561109757600080fd5b506110a487828801610ff8565b95989497509550505050565b60c0815260006110c360c0830189610ee2565b82810360208401526110d58189610ee2565b91505060ff8616604083015284606083015283608083015282151560a0830152979650505050505050565b6000806040838503121561111357600080fd5b61111c83610f42565b915061112a60208401610f42565b90509250929050565b600181811c9082168061114757607f821691505b60208210810361116757634e487b7160e01b600052602260045260246000fd5b50919050565b634e487b7160e01b600052601160045260246000fd5b808201808211156103a0576103a061116d565b818103818111156103a0576103a061116d565b634e487b7160e01b600052603260045260246000fd5b6000600182016111d1576111d161116d565b5060010190565b6000602082840312156111ea57600080fd5b81518015158114610f3b57600080fdfea2646970667358221220747e12633f0ee4b6335d4edca2057dcb7c003ddb4ab188ce9b03e476d3e8ff1564736f6c63430008140033",
  "linkReferences": {},
  "deployedLinkReferences": {}
}