{
  "_format": "hh-sol-artifact-1",
  "contractName": "ProjectEscrow",
  "sourceName": "contracts/ProjectEscrow.sol",
  "abi": [
    {
      "inputs": [
        {
          "internalType": "address",
          "name": "_costToken",
          "type": "address"
        },
        {
          "internalType": "address",
          "name": "_feeRecipient",
          "type": "address"
        }
      ],
      "stateMutability": "nonpayable",
      "type": "constructor"
    },
    {
      "inputs": [],
      "name": "EnforcedPause",
      "type": "error"
    },
    {
      "inputs": [],
      "name": "ExpectedPause",
      "type": "error"
    },
    {
      "inputs": [
        {
          "internalType": "address",
          "name": "owner",
          "type": "address"
        }
      ],
      "name": "OwnableInvalidOwner",
      "type": "error"
    },
    {
      "inputs": [
        {
          "internalType": "address",
          "name": "account",
          "type": "address"
        }
      ],
      "name": "OwnableUnauthorizedAccount",
      "type": "error"
    },
    {
      "inputs": [],
      "name": "ReentrancyGuardReentrantCall",
      "type": "error"
    },
    {
      "anonymous": false,
      "inputs": [
        {
          "indexed": true,
          "internalType": "uint256",
          "name": "projectId",
          "type": "uint256"
        },
        {
          "indexed": true,
          "internalType": "address",
          "name": "contributor",
          "type": "address"
        },
        {
          "indexed": false,
          "internalType": "uint256",
          "name": "amount",
          "type": "uint256"
        },
        {
          "indexed": false,
          "internalType": "uint256",
          "name": "totalRaised",
          "type": "uint256"
        }
      ],
      "name": "ContributionMade",
      "type": "event"
    },
    {
      "anonymous": false,
      "inputs": [
        {
          "indexed": true,
          "internalType": "uint256",
          "name": "projectId",
          "type": "uint256"
        },
        {
          "indexed": true,
          "internalType": "address",
          "name": "raiser",
          "type": "address"
        },
        {
          "indexed": false,
          "internalType": "string",
          "name": "reason",
          "type": "string"
        }
      ],
      "name": "DisputeRaised",
      "type": "event"
    },
    {
      "anonymous": false,
      "inputs": [
        {
          "indexed": true,
          "internalType": "uint256",
          "name": "projectId",
          "type": "uint256"
        },
        {
          "indexed": true,
          "internalType": "address",
          "name": "resolver",
          "type": "address"
        },
        {
          "indexed": false,
          "internalType": "string",
          "name": "resolution",
          "type": "string"
        }
      ],
      "name": "DisputeResolved",
      "type": "event"
    },
    {
      "anonymous": false,
      "inputs": [
        {
          "indexed": true,
          "internalType": "uint256",
          "name": "projectId",
          "type": "uint256"
        },
        {
          "indexed": true,
          "internalType": "address",
          "name": "creator",
          "type": "address"
        },
        {
          "indexed": false,
          "internalType": "uint256",
          "name": "amount",
          "type": "uint256"
        },
        {
          "indexed": false,
          "internalType": "uint256",
          "name": "milestone",
          "type": "uint256"
        }
      ],
      "name": "FundsReleased",
      "type": "event"
    },
    {
      "anonymous": false,
      "inputs": [
        {
          "indexed": true,
          "internalType": "uint256",
          "name": "projectId",
          "type": "uint256"
        },
        {
          "indexed": false,
          "internalType": "uint256",
          "name": "milestoneId",
          "type": "uint256"
        },
        {
          "indexed": false,
          "internalType": "string",
          "name": "description",
          "type": "string"
        },
        {
          "indexed": false,
          "internalType": "uint256",
          "name": "amount",
          "type": "uint256"
        }
      ],
      "name": "MilestoneAdded",
      "type": "event"
    },
    {
      "anonymous": false,
      "inputs": [
        {
          "indexed": true,
          "internalType": "uint256",
          "name": "projectId",
          "type": "uint256"
        },
        {
          "indexed": false,
          "internalType": "uint256",
          "name": "milestoneId",
          "type": "uint256"
        },
        {
          "indexed": false,
          "internalType": "uint256",
          "name": "amountReleased",
          "type": "uint256"
        }
      ],
      "name": "MilestoneCompleted",
      "type": "event"
    },
    {
      "anonymous": false,
      "inputs": [
        {
          "indexed": true,
          "internalType": "address",
          "name": "previousOwner",
          "type": "address"
        },
        {
          "indexed": true,
          "internalType": "address",
          "name": "newOwner",
          "type": "address"
        }
      ],
      "name": "OwnershipTransferred",
      "type": "event"
    },
    {
      "anonymous": false,
      "inputs": [
        {
          "indexed": false,
          "internalType": "address",
          "name": "account",
          "type": "address"
        }
      ],
      "name": "Paused",
      "type": "event"
    },
    {
      "anonymous": false,
      "inputs": [
        {
          "indexed": true,
          "internalType": "uint256",
          "name": "projectId",
          "type": "uint256"
        },
        {
          "indexed": true,
          "internalType": "address",
          "name": "creator",
          "type": "address"
        },
        {
          "indexed": false,
          "internalType": "string",
          "name": "title",
          "type": "string"
        },
        {
          "indexed": false,
          "internalType": "uint256",
          "name": "targetAmount",
          "type": "uint256"
        },
        {
          "indexed": false,
          "internalType": "uint256",
          "name": "deadline",
          "type": "uint256"
        }
      ],
      "name": "ProjectCreated",
      "type": "event"
    },
    {
      "anonymous": false,
      "inputs": [
        {
          "indexed": true,
          "internalType": "uint256",
          "name": "projectId",
          "type": "uint256"
        },
        {
          "indexed": false,
          "internalType": "uint256",
          "name": "totalAmount",
          "type": "uint256"
        },
        {
          "indexed": false,
          "internalType": "uint256",
          "name": "contributorCount",
          "type": "uint256"
        }
      ],
      "name": "ProjectFunded",
      "type": "event"
    },
    {
      "anonymous": false,
      "inputs": [
        {
          "indexed": true,
          "internalType": "uint256",
          "name": "projectId",
          "type": "uint256"
        },
        {
          "indexed": false,
          "internalType": "uint256",
          "name": "totalRefunded",
          "type": "uint256"
        },
        {
          "indexed": false,
          "internalType": "uint256",
          "name": "contributorCount",
          "type": "uint256"
        }
      ],
      "name": "ProjectRefunded",
      "type": "event"
    },
    {
      "anonymous": false,
      "inputs": [
        {
          "indexed": true,
          "internalType": "uint256",
          "name": "projectId",
          "type": "uint256"
        },
        {
          "indexed": false,
          "internalType": "enum ProjectEscrow.ProjectStatus",
          "name": "oldStatus",
          "type": "uint8"
        },
        {
          "indexed": false,
          "internalType": "enum ProjectEscrow.ProjectStatus",
          "name": "newStatus",
          "type": "uint8"
        }
      ],
      "name": "ProjectStatusChanged",
      "type": "event"
    },
    {
      "anonymous": false,
      "inputs": [
        {
          "indexed": false,
          "internalType": "address",
          "name": "account",
          "type": "address"
        }
      ],
      "name": "Unpaused",
      "type": "event"
    },
    {
      "inputs": [],
      "name": "DISPUTE_PERIOD",
      "outputs": [
        {
          "internalType": "uint256",
          "name": "",
          "type": "uint256"
        }
      ],
      "stateMutability": "view",
      "type": "function"
    },
    {
      "inputs": [],
      "name": "MAX_PROJECT_DURATION",
      "outputs": [
        {
          "internalType": "uint256",
          "name": "",
          "type": "uint256"
        }
      ],
      "stateMutability": "view",
      "type": "function"
    },
    {
      "inputs": [],
      "name": "MIN_PROJECT_DURATION",
      "outputs": [
        {
          "internalType": "uint256",
          "name": "",
          "type": "uint256"
        }
      ],
      "stateMutability": "view",
      "type": "function"
    },
    {
      "inputs": [],
      "name": "PLATFORM_FEE",
      "outputs": [
        {
          "internalType": "uint256",
          "name": "",
          "type": "uint256"
        }
      ],
      "stateMutability": "view",
      "type": "function"
    },
    {
      "inputs": [
        {
          "internalType": "uint256",
          "name": "_projectId",
          "type": "uint256"
        },
        {
          "internalType": "string",
          "name": "_description",
          "type": "string"
        },
        {
          "internalType": "uint256",
          "name": "_amount",
          "type": "uint256"
        },
        {
          "internalType": "uint256",
          "name": "_deadline",
          "type": "uint256"
        }
      ],
      "name": "addMilestone",
      "outputs": [],
      "stateMutability": "nonpayable",
      "type": "function"
    },
    {
      "inputs": [
        {
          "internalType": "uint256",
          "name": "_projectId",
          "type": "uint256"
        },
        {
          "internalType": "uint256",
          "name": "_milestoneId",
          "type": "uint256"
        }
      ],
      "name": "approveMilestone",
      "outputs": [],
      "stateMutability": "nonpayable",
      "type": "function"
    },
    {
      "inputs": [
        {
          "internalType": "uint256",
          "name": "_projectId",
          "type": "uint256"
        }
      ],
      "name": "cancelProject",
      "outputs": [],
      "stateMutability": "nonpayable",
      "type": "function"
    },
    {
      "inputs": [
        {
          "internalType": "uint256",
          "name": "_projectId",
          "type": "uint256"
        },
        {
          "internalType": "uint256",
          "name": "_milestoneId",
          "type": "uint256"
        }
      ],
      "name": "completeMilestone",
      "outputs": [],
      "stateMutability": "nonpayable",
      "type": "function"
    },
    {
      "inputs": [
        {
          "internalType": "uint256",
          "name": "_projectId",
          "type": "uint256"
        },
        {
          "internalType": "uint256",
          "name": "_amount",
          "type": "uint256"
        }
      ],
      "name": "contribute",
      "outputs": [],
      "stateMutability": "nonpayable",
      "type": "function"
    },
    {
      "inputs": [
        {
          "internalType": "uint256",
          "name": "",
          "type": "uint256"
        },
        {
          "internalType": "address",
          "name": "",
          "type": "address"
        }
      ],
      "name": "contributions",
      "outputs": [
        {
          "internalType": "uint256",
          "name": "",
          "type": "uint256"
        }
      ],
      "stateMutability": "view",
      "type": "function"
    },
    {
      "inputs": [
        {
          "internalType": "uint256",
          "name": "",
          "type": "uint256"
        },
        {
          "internalType": "uint256",
          "name": "",
          "type": "uint256"
        }
      ],
      "name": "contributors",
      "outputs": [
        {
          "internalType": "address",
          "name": "",
          "type": "address"
        }
      ],
      "stateMutability": "view",
      "type": "function"
    },
    {
      "inputs": [],
      "name": "costToken",
      "outputs": [
        {
          "internalType": "contract COSTToken",
          "name": "",
          "type": "address"
        }
      ],
      "stateMutability": "view",
      "type": "function"
    },
    {
      "inputs": [
        {
          "internalType": "string",
          "name": "_title",
          "type": "string"
        },
        {
          "internalType": "string",
          "name": "_description",
          "type": "string"
        },
        {
          "internalType": "string",
          "name": "_category",
          "type": "string"
        },
        {
          "internalType": "uint256",
          "name": "_targetAmount",
          "type": "uint256"
        },
        {
          "internalType": "uint256",
          "name": "_duration",
          "type": "uint256"
        },
        {
          "internalType": "string",
          "name": "_metadataURI",
          "type": "string"
        }
      ],
      "name": "createProject",
      "outputs": [
        {
          "internalType": "uint256",
          "name": "",
          "type": "uint256"
        }
      ],
      "stateMutability": "nonpayable",
      "type": "function"
    },
    {
      "inputs": [
        {
          "internalType": "uint256",
          "name": "",
          "type": "uint256"
        }
      ],
      "name": "disputes",
      "outputs": [
        {
          "internalType": "address",
          "name": "raiser",
          "type": "address"
        },
        {
          "internalType": "string",
          "name": "reason",
          "type": "string"
        },
        {
          "internalType": "uint256",
          "name": "raisedAt",
          "type": "uint256"
        },
        {
          "internalType": "enum ProjectEscrow.DisputeStatus",
          "name": "status",
          "type": "uint8"
        },
        {
          "internalType": "address",
          "name": "resolver",
          "type": "address"
        },
        {
          "internalType": "string",
          "name": "resolution",
          "type": "string"
        }
      ],
      "stateMutability": "view",
      "type": "function"
    },
    {
      "inputs": [
        {
          "internalType": "address",
          "name": "_token",
          "type": "address"
        },
        {
          "internalType": "uint256",
          "name": "_amount",
          "type": "uint256"
        }
      ],
      "name": "emergencyWithdraw",
      "outputs": [],
      "stateMutability": "nonpayable",
      "type": "function"
    },
    {
      "inputs": [],
      "name": "feeRecipient",
      "outputs": [
        {
          "internalType": "address",
          "name": "",
          "type": "address"
        }
      ],
      "stateMutability": "view",
      "type": "function"
    },
    {
      "inputs": [
        {
          "internalType": "uint256",
          "name": "_projectId",
          "type": "uint256"
        },
        {
          "internalType": "address",
          "name": "_contributor",
          "type": "address"
        }
      ],
      "name": "getContribution",
      "outputs": [
        {
          "internalType": "uint256",
          "name": "",
          "type": "uint256"
        }
      ],
      "stateMutability": "view",
      "type": "function"
    },
    {
      "inputs": [
        {
          "internalType": "uint256",
          "name": "_projectId",
          "type": "uint256"
        }
      ],
      "name": "getContributors",
      "outputs": [
        {
          "internalType": "address[]",
          "name": "",
          "type": "address[]"
        }
      ],
      "stateMutability": "view",
      "type": "function"
    },
    {
      "inputs": [
        {
          "internalType": "uint256",
          "name": "_projectId",
          "type": "uint256"
        },
        {
          "internalType": "uint256",
          "name": "_milestoneId",
          "type": "uint256"
        }
      ],
      "name": "getMilestone",
      "outputs": [
        {
          "internalType": "string",
          "name": "description",
          "type": "string"
        },
        {
          "internalType": "uint256",
          "name": "amount",
          "type": "uint256"
        },
        {
          "internalType": "uint256",
          "name": "deadline",
          "type": "uint256"
        },
        {
          "internalType": "bool",
          "name": "completed",
          "type": "bool"
        },
        {
          "internalType": "bool",
          "name": "approved",
          "type": "bool"
        }
      ],
      "stateMutability": "view",
      "type": "function"
    },
    {
      "inputs": [
        {
          "internalType": "uint256",
          "name": "_projectId",
          "type": "uint256"
        }
      ],
      "name": "getProject",
      "outputs": [
        {
          "internalType": "address",
          "name": "creator",
          "type": "address"
        },
        {
          "internalType": "string",
          "name": "title",
          "type": "string"
        },
        {
          "internalType": "string",
          "name": "description",
          "type": "string"
        },
        {
          "internalType": "string",
          "name": "category",
          "type": "string"
        },
        {
          "internalType": "uint256",
          "name": "targetAmount",
          "type": "uint256"
        },
        {
          "internalType": "uint256",
          "name": "currentAmount",
          "type": "uint256"
        },
        {
          "internalType": "uint256",
          "name": "deadline",
          "type": "uint256"
        },
        {
          "internalType": "enum ProjectEscrow.ProjectStatus",
          "name": "status",
          "type": "uint8"
        },
        {
          "internalType": "string",
          "name": "metadataURI",
          "type": "string"
        },
        {
          "internalType": "uint256",
          "name": "createdAt",
          "type": "uint256"
        },
        {
          "internalType": "uint256",
          "name": "milestoneCount",
          "type": "uint256"
        }
      ],
      "stateMutability": "view",
      "type": "function"
    },
    {
      "inputs": [
        {
          "internalType": "address",
          "name": "_user",
          "type": "address"
        }
      ],
      "name": "getUserContributions",
      "outputs": [
        {
          "internalType": "uint256[]",
          "name": "",
          "type": "uint256[]"
        }
      ],
      "stateMutability": "view",
      "type": "function"
    },
    {
      "inputs": [
        {
          "internalType": "address",
          "name": "_user",
          "type": "address"
        }
      ],
      "name": "getUserProjects",
      "outputs": [
        {
          "internalType": "uint256[]",
          "name": "",
          "type": "uint256[]"
        }
      ],
      "stateMutability": "view",
      "type": "function"
    },
    {
      "inputs": [],
      "name": "owner",
      "outputs": [
        {
          "internalType": "address",
          "name": "",
          "type": "address"
        }
      ],
      "stateMutability": "view",
      "type": "function"
    },
    {
      "inputs": [],
      "name": "pause",
      "outputs": [],
      "stateMutability": "nonpayable",
      "type": "function"
    },
    {
      "inputs": [],
      "name": "paused",
      "outputs": [
        {
          "internalType": "bool",
          "name": "",
          "type": "bool"
        }
      ],
      "stateMutability": "view",
      "type": "function"
    },
    {
      "inputs": [],
      "name": "projectCounter",
      "outputs": [
        {
          "internalType": "uint256",
          "name": "",
          "type": "uint256"
        }
      ],
      "stateMutability": "view",
      "type": "function"
    },
    {
      "inputs": [
        {
          "internalType": "uint256",
          "name": "",
          "type": "uint256"
        }
      ],
      "name": "projects",
      "outputs": [
        {
          "internalType": "address",
          "name": "creator",
          "type": "address"
        },
        {
          "internalType": "string",
          "name": "title",
          "type": "string"
        },
        {
          "internalType": "string",
          "name": "description",
          "type": "string"
        },
        {
          "internalType": "string",
          "name": "category",
          "type": "string"
        },
        {
          "internalType": "uint256",
          "name": "targetAmount",
          "type": "uint256"
        },
        {
          "internalType": "uint256",
          "name": "currentAmount",
          "type": "uint256"
        },
        {
          "internalType": "uint256",
          "name": "deadline",
          "type": "uint256"
        },
        {
          "internalType": "enum ProjectEscrow.ProjectStatus",
          "name": "status",
          "type": "uint8"
        },
        {
          "internalType": "string",
          "name": "metadataURI",
          "type": "string"
        },
        {
          "internalType": "uint256",
          "name": "createdAt",
          "type": "uint256"
        },
        {
          "internalType": "uint256",
          "name": "milestoneCount",
          "type": "uint256"
        }
      ],
      "stateMutability": "view",
      "type": "function"
    },
    {
      "inputs": [
        {
          "internalType": "uint256",
          "name": "_projectId",
          "type": "uint256"
        },
        {
          "internalType": "string",
          "name": "_reason",
          "type": "string"
        }
      ],
      "name": "raiseDispute",
      "outputs": [],
      "stateMutability": "nonpayable",
      "type": "function"
    },
    {
      "inputs": [
        {
          "internalType": "uint256",
          "name": "_projectId",
          "type": "uint256"
        }
      ],
      "name": "refundProject",
      "outputs": [],
      "stateMutability": "nonpayable",
      "type": "function"
    },
    {
      "inputs": [],
      "name": "renounceOwnership",
      "outputs": [],
      "stateMutability": "nonpayable",
      "type": "function"
    },
    {
      "inputs": [
        {
          "internalType": "uint256",
          "name": "_projectId",
          "type": "uint256"
        },
        {
          "internalType": "string",
          "name": "_resolution",
          "type": "string"
        },
        {
          "internalType": "bool",
          "name": "_refundContributors",
          "type": "bool"
        }
      ],
      "name": "resolveDispute",
      "outputs": [],
      "stateMutability": "nonpayable",
      "type": "function"
    },
    {
      "inputs": [
        {
          "internalType": "address",
          "name": "_newRecipient",
          "type": "address"
        }
      ],
      "name": "setFeeRecipient",
      "outputs": [],
      "stateMutability": "nonpayable",
      "type": "function"
    },
    {
      "inputs": [],
      "name": "totalFeesCollected",
      "outputs": [
        {
          "internalType": "uint256",
          "name": "",
          "type": "uint256"
        }
      ],
      "stateMutability": "view",
      "type": "function"
    },
    {
      "inputs": [
        {
          "internalType": "address",
          "name": "newOwner",
          "type": "address"
        }
      ],
      "name": "transferOwnership",
      "outputs": [],
      "stateMutability": "nonpayable",
      "type": "function"
    },
    {
      "inputs": [],
      "name": "unpause",
      "outputs": [],
      "stateMutability": "nonpayable",
      "type": "function"
    },
    {
      "inputs": [
        {
          "internalType": "address",
          "name": "",
          "type": "address"
        },
        {
          "internalType": "uint256",
          "name": "",
          "type": "uint256"
        }
      ],
      "name": "userContributions",
      "outputs": [
        {
          "internalType": "uint256",
          "name": "",
          "type": "uint256"
        }
      ],
      "stateMutability": "view",
      "type": "function"
    },
    {
      "inputs": [
        {
          "internalType": "address",
          "name": "",
          "type": "address"
        },
        {
          "internalType": "uint256",
          "name": "",
          "type": "uint256"
        }
      ],
      "name": "userProjects",
      "outputs": [
        {
          "internalType": "uint256",
          "name": "",
          "type": "uint256"
        }
      ],
      "stateMutability": "view",
      "type": "function"
    }
  ],
  "bytecode": "0x60a06040523480156200001157600080fd5b5060405162003384380380620033848339810160408190526200003491620001b5565b600160005533806200006157604051631e4fbdf760e01b8152600060048201526024015b60405180910390fd5b6200006c8162000146565b506001600160a01b038216620000c55760405162461bcd60e51b815260206004820152601560248201527f496e76616c696420746f6b656e20616464726573730000000000000000000000604482015260640162000058565b6001600160a01b0381166200011d5760405162461bcd60e51b815260206004820152601560248201527f496e76616c69642066656520726563697069656e740000000000000000000000604482015260640162000058565b6001600160a01b03918216608052600980546001600160a01b03191691909216179055620001ed565b600180546001600160a01b038381166001600160a01b0319831681179093556040519116919082907f8be0079c531659141344cd1fd0a4f28419497f9722a3daafe3b4186f6b6457e090600090a35050565b80516001600160a01b0381168114620001b057600080fd5b919050565b60008060408385031215620001c957600080fd5b620001d48362000198565b9150620001e46020840162000198565b90509250929050565b6080516131586200022c6000396000818161040d01528181610b9e01528181610c750152818161176301528181611c73015261264101526131586000f3fe608060405234801561001057600080fd5b50600436106102275760003560e01c806360c6d8ae1161013057806395ccea67116100b8578063e74b981b1161007c578063e74b981b146104eb578063f0f3f2c8146104fe578063f2fde38b14610511578063f326206b14610524578063f8a518ed1461053757600080fd5b806395ccea6714610492578063a5bbe22b14610372578063e081dbf9146104a5578063e32e723c146104b8578063e36465a3146104d857600080fd5b80638456cb59116100ff5780638456cb591461042f5780638c590917146104375780638da5cb5b1461044a5780638ed9895c1461045b57806393d17e251461047f57600080fd5b806360c6d8ae146103e4578063715018a6146103ed5780637331fa95146103f557806374a349d21461040857600080fd5b80633d891f59116101b35780634991d7f9116101825780634991d7f91461037257806354346b661461037c578063564a565d1461038f5780635aef573c146103b45780635c975abb146103c757600080fd5b80633d891f59146103015780633f4ba83a1461032c5780633f7ed52e14610334578063469048401461034757600080fd5b8063267f2098116101fa578063267f2098146102a85780632c3b25bb146102bb5780632fa9c007146102c657806334fbc9a1146102d95780633c1ab00f146102e157600080fd5b8063107046bd1461022c5780631fb497121461025f57806320913da5146102805780632494114714610295575b600080fd5b61023f61023a3660046128d6565b610540565b6040516102569b9a9998979695949392919061295f565b60405180910390f35b61027261026d366004612aa0565b6107c5565b604051908152602001610256565b61029361028e366004612b5f565b6109e1565b005b6102936102a33660046128d6565b610df9565b6102936102b6366004612b8f565b610ee4565b6102726301e1338081565b6102726102d4366004612c06565b611018565b61027260fa81565b6102f46102ef3660046128d6565b611049565b6040516102569190612c30565b61027261030f366004612c7d565b600360209081526000928352604080842090915290825290205481565b6102936110b5565b6102936103423660046128d6565b6110c7565b60095461035a906001600160a01b031681565b6040516001600160a01b039091168152602001610256565b61027262093a8081565b61035a61038a366004612b5f565b6111b8565b6103a261039d3660046128d6565b6111f0565b60405161025696959493929190612ca9565b6102936103c2366004612d0f565b611350565b600154600160a01b900460ff166040519015158152602001610256565b610272600a5481565b610293611560565b610272610403366004612c06565b611572565b61035a7f000000000000000000000000000000000000000000000000000000000000000081565b61029361158e565b610293610445366004612b5f565b61159e565b6001546001600160a01b031661035a565b61046e610469366004612b5f565b611989565b604051610256959493929190612d56565b61029361048d366004612d8f565b611a72565b6102936104a0366004612c06565b611c69565b6102726104b3366004612c7d565b611d84565b6104cb6104c6366004612de6565b611dae565b6040516102569190612e08565b6104cb6104e6366004612de6565b611e19565b6102936104f9366004612de6565b611e83565b61023f61050c3660046128d6565b611ef5565b61029361051f366004612de6565b6121df565b610293610532366004612b5f565b61221d565b61027260085481565b600260205260009081526040902080546001820180546001600160a01b03909216929161056c90612e40565b80601f016020809104026020016040519081016040528092919081815260200182805461059890612e40565b80156105e55780601f106105ba576101008083540402835291602001916105e5565b820191906000526020600020905b8154815290600101906020018083116105c857829003601f168201915b5050505050908060020180546105fa90612e40565b80601f016020809104026020016040519081016040528092919081815260200182805461062690612e40565b80156106735780601f1061064857610100808354040283529160200191610673565b820191906000526020600020905b81548152906001019060200180831161065657829003601f168201915b50505050509080600301805461068890612e40565b80601f01602080910402602001604051908101604052809291908181526020018280546106b490612e40565b80156107015780601f106106d657610100808354040283529160200191610701565b820191906000526020600020905b8154815290600101906020018083116106e457829003601f168201915b50505060048401546005850154600686015460078701546008880180549798949793965091945060ff16929161073690612e40565b80601f016020809104026020016040519081016040528092919081815260200182805461076290612e40565b80156107af5780601f10610784576101008083540402835291602001916107af565b820191906000526020600020905b81548152906001019060200180831161079257829003601f168201915b50505050509080600901549080600a015490508b565b60006107cf612493565b600087511161081d5760405162461bcd60e51b81526020600482015260156024820152745469746c652063616e6e6f7420626520656d70747960581b60448201526064015b60405180910390fd5b6000841161086d5760405162461bcd60e51b815260206004820152601e60248201527f54617267657420616d6f756e74206d75737420626520706f73697469766500006044820152606401610814565b62093a80831015801561088457506301e133808311155b6108c35760405162461bcd60e51b815260206004820152601060248201526f24b73b30b634b210323ab930ba34b7b760811b6044820152606401610814565b60088054600091826108d483612e90565b90915550905060006108e68542612ea9565b600083815260026020526040902080546001600160a01b03191633178155909150600181016109158b82612f0a565b50600281016109248a82612f0a565b50600381016109338982612f0a565b5060048101879055600060058201556006810182905560078101805460ff19169055600881016109638682612f0a565b504260098201556000600a82018190553380825260066020908152604080842080546001810182559085529190932001859055905184907f483013d4a1d5e8ba43089bda8f1a92b959e32d6fc582556f800267dd809e5893906109cb908e908c908890612fca565b60405180910390a3509098975050505050505050565b816008548110610a035760405162461bcd60e51b815260040161081490612fef565b60008381526003602090815260408083203384529091529020548390610a5f5760405162461bcd60e51b81526020600482015260116024820152702737ba10309031b7b73a3934b13aba37b960791b6044820152606401610814565b6000848152600260209081526040808320868452600b8101909252909120600381015460ff16610ad15760405162461bcd60e51b815260206004820152601760248201527f4d696c6573746f6e65206e6f7420636f6d706c657465640000000000000000006044820152606401610814565b6003810154610100900460ff1615610b2b5760405162461bcd60e51b815260206004820152601a60248201527f4d696c6573746f6e6520616c726561647920617070726f7665640000000000006044820152606401610814565b60038101805461ff001916610100179055600181015460009061271090610b549060fa9061301f565b610b5e9190613036565b90506000818360010154610b729190613058565b60095460405163a9059cbb60e01b81526001600160a01b039182166004820152602481018590529192507f0000000000000000000000000000000000000000000000000000000000000000169063a9059cbb906044016020604051808303816000875af1158015610be7573d6000803e3d6000fd5b505050506040513d601f19601f82011682018060405250810190610c0b919061306b565b610c4d5760405162461bcd60e51b8152602060048201526013602482015272119959481d1c985b9cd9995c8819985a5b1959606a1b6044820152606401610814565b835460405163a9059cbb60e01b81526001600160a01b039182166004820152602481018390527f00000000000000000000000000000000000000000000000000000000000000009091169063a9059cbb906044016020604051808303816000875af1158015610cc0573d6000803e3d6000fd5b505050506040513d601f19601f82011682018060405250810190610ce4919061306b565b610d305760405162461bcd60e51b815260206004820152601760248201527f43726561746f72207472616e73666572206661696c65640000000000000000006044820152606401610814565b81600a6000828254610d429190612ea9565b9091555050835460408051838152602081018a90526001600160a01b03909216918a917f93e901cc5aea20ea9655887d9290a3215a5b3999c024812f4e4b749f7534349c910160405180910390a3600160005b85600a0154811015610ddc576000818152600b87016020526040902060030154610100900460ff16610dca5760009150610ddc565b80610dd481612e90565b915050610d95565b508015610dee57610dee8960036124be565b505050505050505050565b806008548110610e1b5760405162461bcd60e51b815260040161081490612fef565b60008281526002602052604090205482906001600160a01b03163314610e535760405162461bcd60e51b815260040161081490613088565b600083815260026020526040812090600782015460ff166006811115610e7b57610e7b612935565b14610ec05760405162461bcd60e51b815260206004820152601560248201527410d85b9b9bdd0818d85b98d95b081c1c9bda9958dd605a1b6044820152606401610814565b610ecb8460056124be565b600581015415610ede57610ede84612534565b50505050565b826008548110610f065760405162461bcd60e51b815260040161081490612fef565b610f0e61276b565b6000848152600560205260409020600160038083015460ff1690811115610f3757610f37612935565b14610f785760405162461bcd60e51b81526020600482015260116024820152704e6f20616374697665206469737075746560781b6044820152606401610814565b600381018054610100600160a81b031916336101000217905560048101610f9f8582612f0a565b506003818101805460ff191690911790558215610fc457610fbf85612534565b610fcf565b610fcf8560026124be565b336001600160a01b0316857f7b71d2e00379bd165b2750d54298da2414376699827edca2bce2a096c491d2e98660405161100991906130b5565b60405180910390a35050505050565b6006602052816000526040600020818154811061103457600080fd5b90600052602060002001600091509150505481565b6000818152600460209081526040918290208054835181840281018401909452808452606093928301828280156110a957602002820191906000526020600020905b81546001600160a01b0316815260019091019060200180831161108b575b50505050509050919050565b6110bd61276b565b6110c5612798565b565b8060085481106110e95760405162461bcd60e51b815260040161081490612fef565b60008281526002602052604090206005600782015460ff16600681111561111257611112612935565b1480611144575080600601544211801561114457506000600782015460ff16600681111561114257611142612935565b145b8061116757506004600782015460ff16600681111561116557611165612935565b145b6111aa5760405162461bcd60e51b8152602060048201526014602482015273526566756e64206e6f7420617661696c61626c6560601b6044820152606401610814565b6111b383612534565b505050565b600460205281600052604060002081815481106111d457600080fd5b6000918252602090912001546001600160a01b03169150829050565b600560205260009081526040902080546001820180546001600160a01b03909216929161121c90612e40565b80601f016020809104026020016040519081016040528092919081815260200182805461124890612e40565b80156112955780601f1061126a57610100808354040283529160200191611295565b820191906000526020600020905b81548152906001019060200180831161127857829003601f168201915b50505050600283015460038401546004850180549495929460ff831694506101009092046001600160a01b031692916112cd90612e40565b80601f01602080910402602001604051908101604052809291908181526020018280546112f990612e40565b80156113465780601f1061131b57610100808354040283529160200191611346565b820191906000526020600020905b81548152906001019060200180831161132957829003601f168201915b5050505050905086565b8160085481106113725760405162461bcd60e51b815260040161081490612fef565b600083815260036020908152604080832033845290915290205483906113ce5760405162461bcd60e51b81526020600482015260116024820152702737ba10309031b7b73a3934b13aba37b960791b6044820152606401610814565b600084815260026020819052604090912090600782015460ff1660068111156113f9576113f9612935565b148061141d57506001600782015460ff16600681111561141b5761141b612935565b145b6114695760405162461bcd60e51b815260206004820152601b60248201527f43616e6e6f74206469737075746520746869732070726f6a65637400000000006044820152606401610814565b60008581526005602052604081209060038083015460ff169081111561149157611491612935565b146114d75760405162461bcd60e51b81526020600482015260166024820152754469737075746520616c72656164792065786973747360501b6044820152606401610814565b80546001600160a01b03191633178155600181016114f58682612f0a565b5042600282015560038101805460ff191660011790556115168660046124be565b336001600160a01b0316867f1b84372106d77c6daea0dda35bbc0229d10a83f58ec8990928849251936823418760405161155091906130b5565b60405180910390a3505050505050565b61156861276b565b6110c560006127ed565b6007602052816000526040600020818154811061103457600080fd5b61159661276b565b6110c561283f565b8160085481106115c05760405162461bcd60e51b815260040161081490612fef565b6115c8612882565b6115d0612493565b600083815260026020526040812090600782015460ff1660068111156115f8576115f8612935565b1461163a5760405162461bcd60e51b815260206004820152601260248201527150726f6a656374206e6f742061637469766560701b6044820152606401610814565b8060060154421061168d5760405162461bcd60e51b815260206004820152601760248201527f50726f6a65637420646561646c696e65207061737365640000000000000000006044820152606401610814565b600083116116d75760405162461bcd60e51b8152602060048201526017602482015276416d6f756e74206d75737420626520706f73697469766560481b6044820152606401610814565b80546001600160a01b031633036117415760405162461bcd60e51b815260206004820152602860248201527f43726561746f722063616e6e6f7420636f6e7472696275746520746f206f776e604482015267081c1c9bda9958dd60c21b6064820152608401610814565b6040516323b872dd60e01b8152336004820152306024820152604481018490527f00000000000000000000000000000000000000000000000000000000000000006001600160a01b0316906323b872dd906064016020604051808303816000875af11580156117b4573d6000803e3d6000fd5b505050506040513d601f19601f820116820180604052508101906117d8919061306b565b61181c5760405162461bcd60e51b8152602060048201526015602482015274151bdad95b881d1c985b9cd9995c8819985a5b1959605a1b6044820152606401610814565b600084815260036020908152604080832033845290915281205490036118895760008481526004602090815260408083208054600181810183559185528385200180546001600160a01b031916339081179091558452600783529083208054918201815583529120018490555b6000848152600360209081526040808320338452909152812080548592906118b2908490612ea9565b92505081905550828160050160008282546118cd9190612ea9565b90915550506005810154604080518581526020810192909252339186917ff9b7589b7a8d939b9da5dae90770378fe5fd7802be5d66432e85bedbdbfbcb7a910160405180910390a3806004015481600501541061197e5761192f8460016124be565b60058101546000858152600460209081526040918290205482519384529083015285917f88181227440faaf371d3e3b70380fb197eb7333aa03a236c4b81e4ebcc5c5c95910160405180910390a25b506111b36001600055565b6000828152600260208181526040808420858552600b0190915282206001810154918101546003820154825460609594859485948594919384939260ff80821692610100909204169085906119dd90612e40565b80601f0160208091040260200160405190810160405280929190818152602001828054611a0990612e40565b8015611a565780601f10611a2b57610100808354040283529160200191611a56565b820191906000526020600020905b815481529060010190602001808311611a3957829003601f168201915b5050505050945095509550955095509550509295509295909350565b836008548110611a945760405162461bcd60e51b815260040161081490612fef565b60008581526002602052604090205485906001600160a01b03163314611acc5760405162461bcd60e51b815260040161081490613088565b600086815260026020526040812090600782015460ff166006811115611af457611af4612935565b14611b365760405162461bcd60e51b815260206004820152601260248201527150726f6a656374206e6f742061637469766560701b6044820152606401610814565b428411611b855760405162461bcd60e51b815260206004820152601a60248201527f446561646c696e65206d75737420626520696e206675747572650000000000006044820152606401610814565b60008511611bcf5760405162461bcd60e51b8152602060048201526017602482015276416d6f756e74206d75737420626520706f73697469766560481b6044820152606401610814565b600a8101805460009182611be283612e90565b909155506000818152600b84016020526040902090915080611c048982612f0a565b50600181018790556002810186905560038101805461ffff1916905560405189907fc67423104bf96f5ca8826913ae711e8c2254e1b2c04af907b2312853ed4cbed290611c569085908c908c906130c8565b60405180910390a2505050505050505050565b611c7161276b565b7f00000000000000000000000000000000000000000000000000000000000000006001600160a01b0316826001600160a01b031603611cf25760405162461bcd60e51b815260206004820152601b60248201527f43616e6e6f7420776974686472617720434f535420746f6b656e7300000000006044820152606401610814565b816001600160a01b031663a9059cbb611d136001546001600160a01b031690565b6040516001600160e01b031960e084901b1681526001600160a01b039091166004820152602481018490526044016020604051808303816000875af1158015611d60573d6000803e3d6000fd5b505050506040513d601f19601f820116820180604052508101906111b3919061306b565b60008281526003602090815260408083206001600160a01b03851684529091529020545b92915050565b6001600160a01b0381166000908152600660209081526040918290208054835181840281018401909452808452606093928301828280156110a957602002820191906000526020600020905b815481526020019060010190808311611dfa5750505050509050919050565b6001600160a01b0381166000908152600760209081526040918290208054835181840281018401909452808452606093928301828280156110a95760200282019190600052602060002090815481526020019060010190808311611dfa5750505050509050919050565b611e8b61276b565b6001600160a01b038116611ed35760405162461bcd60e51b815260206004820152600f60248201526e496e76616c6964206164647265737360881b6044820152606401610814565b600980546001600160a01b0319166001600160a01b0392909216919091179055565b6000606080606060008060008060606000808b6008548110611f295760405162461bcd60e51b815260040161081490612fef565b60008d8152600260208190526040909120805460048201546005830154600684015460078501546009860154600a87015460018801805498996001600160a01b039098169890978a019660038b019690959094909360ff9091169260088c01928a90611f9490612e40565b80601f0160208091040260200160405190810160405280929190818152602001828054611fc090612e40565b801561200d5780601f10611fe25761010080835404028352916020019161200d565b820191906000526020600020905b815481529060010190602001808311611ff057829003601f168201915b5050505050995088805461202090612e40565b80601f016020809104026020016040519081016040528092919081815260200182805461204c90612e40565b80156120995780601f1061206e57610100808354040283529160200191612099565b820191906000526020600020905b81548152906001019060200180831161207c57829003601f168201915b505050505098508780546120ac90612e40565b80601f01602080910402602001604051908101604052809291908181526020018280546120d890612e40565b80156121255780601f106120fa57610100808354040283529160200191612125565b820191906000526020600020905b81548152906001019060200180831161210857829003601f168201915b5050505050975082805461213890612e40565b80601f016020809104026020016040519081016040528092919081815260200182805461216490612e40565b80156121b15780601f10612186576101008083540402835291602001916121b1565b820191906000526020600020905b81548152906001019060200180831161219457829003601f168201915b505050505092509c509c509c509c509c509c509c509c509c509c509c50505091939597999b90929496989a50565b6121e761276b565b6001600160a01b03811661221157604051631e4fbdf760e01b815260006004820152602401610814565b61221a816127ed565b50565b81600854811061223f5760405162461bcd60e51b815260040161081490612fef565b60008381526002602052604090205483906001600160a01b031633146122775760405162461bcd60e51b815260040161081490613088565b60008481526002602052604090206001600782015460ff1660068111156122a0576122a0612935565b14806122c457506002600782015460ff1660068111156122c2576122c2612935565b145b6123095760405162461bcd60e51b8152602060048201526016602482015275496e76616c69642070726f6a6563742073746174757360501b6044820152606401610814565b80600a015484106123505760405162461bcd60e51b8152602060048201526011602482015270496e76616c6964206d696c6573746f6e6560781b6044820152606401610814565b6000848152600b820160205260409020600381015460ff16156123b55760405162461bcd60e51b815260206004820152601b60248201527f4d696c6573746f6e6520616c726561647920636f6d706c6574656400000000006044820152606401610814565b80600201544211156124095760405162461bcd60e51b815260206004820152601960248201527f4d696c6573746f6e6520646561646c696e6520706173736564000000000000006044820152606401610814565b60038101805460ff19166001908117909155600783015460ff16600681111561243457612434612935565b03612444576124448660026124be565b857fd4dbda378623f00b72ef135b4579b7ba064c49645217eb107d663831efac6358868360010154604051612483929190918252602082015260400190565b60405180910390a2505050505050565b600154600160a01b900460ff16156110c55760405163d93c066560e01b815260040160405180910390fd5b6000828152600260205260409020600701805460ff811691839160ff191660018360068111156124f0576124f0612935565b0217905550827ff75c354d0772e6386c514de8e03be6b7fb27fe941335caa779ee1b9f34fe0c1e82846040516125279291906130f1565b60405180910390a2505050565b600081815260026020908152604080832060048352818420805483518186028101860190945280845291949390919083018282801561259c57602002820191906000526020600020905b81546001600160a01b0316815260019091019060200180831161257e575b505050505090506000805b82518110156127155760008382815181106125c4576125c461310c565b60209081029190910181015160008881526003835260408082206001600160a01b0384168352909352919091205490915080156127005760008781526003602090815260408083206001600160a01b0386811680865291909352818420939093555163a9059cbb60e01b81526004810192909252602482018390527f0000000000000000000000000000000000000000000000000000000000000000169063a9059cbb906044016020604051808303816000875af115801561268a573d6000803e3d6000fd5b505050506040513d601f19601f820116820180604052508101906126ae919061306b565b6126f35760405162461bcd60e51b81526020600482015260166024820152751499599d5b99081d1c985b9cd9995c8819985a5b195960521b6044820152606401610814565b6126fd8185612ea9565b93505b5050808061270d90612e90565b9150506125a7565b506127218460066124be565b837f0f6c2a54cb2ea278f1a73f514d7e2a316338b578969c9d606a3c707c4684ad6382845160405161275d929190918252602082015260400190565b60405180910390a250505050565b6001546001600160a01b031633146110c55760405163118cdaa760e01b8152336004820152602401610814565b6127a06128ac565b6001805460ff60a01b191690557f5db9ee0a495bf2e6ff9c91a7834c1ba4fdd244a5e8aa4e537bd38aeae4b073aa335b6040516001600160a01b03909116815260200160405180910390a1565b600180546001600160a01b038381166001600160a01b0319831681179093556040519116919082907f8be0079c531659141344cd1fd0a4f28419497f9722a3daafe3b4186f6b6457e090600090a35050565b612847612493565b6001805460ff60a01b1916600160a01b1790557f62e78cea01bee320cd4e420270b5ea74000d11b0c9f74754ebdbfc544b05a2586127d03390565b6002600054036128a557604051633ee5aeb560e01b815260040160405180910390fd5b6002600055565b600154600160a01b900460ff166110c557604051638dfc202b60e01b815260040160405180910390fd5b6000602082840312156128e857600080fd5b5035919050565b6000815180845260005b81811015612915576020818501810151868301820152016128f9565b506000602082860101526020601f19601f83011685010191505092915050565b634e487b7160e01b600052602160045260246000fd5b6007811061295b5761295b612935565b9052565b6001600160a01b038c168152610160602082018190526000906129848382018e6128ef565b90508281036040840152612998818d6128ef565b905082810360608401526129ac818c6128ef565b90508960808401528860a08401528760c08401526129cd60e084018861294b565b8281036101008401526129e081876128ef565b610120840195909552505061014001529998505050505050505050565b634e487b7160e01b600052604160045260246000fd5b600082601f830112612a2457600080fd5b813567ffffffffffffffff80821115612a3f57612a3f6129fd565b604051601f8301601f19908116603f01168101908282118183101715612a6757612a676129fd565b81604052838152866020858801011115612a8057600080fd5b836020870160208301376000602085830101528094505050505092915050565b60008060008060008060c08789031215612ab957600080fd5b863567ffffffffffffffff80821115612ad157600080fd5b612add8a838b01612a13565b97506020890135915080821115612af357600080fd5b612aff8a838b01612a13565b96506040890135915080821115612b1557600080fd5b612b218a838b01612a13565b9550606089013594506080890135935060a0890135915080821115612b4557600080fd5b50612b5289828a01612a13565b9150509295509295509295565b60008060408385031215612b7257600080fd5b50508035926020909101359150565b801515811461221a57600080fd5b600080600060608486031215612ba457600080fd5b83359250602084013567ffffffffffffffff811115612bc257600080fd5b612bce86828701612a13565b9250506040840135612bdf81612b81565b809150509250925092565b80356001600160a01b0381168114612c0157600080fd5b919050565b60008060408385031215612c1957600080fd5b612c2283612bea565b946020939093013593505050565b6020808252825182820181905260009190848201906040850190845b81811015612c715783516001600160a01b031683529284019291840191600101612c4c565b50909695505050505050565b60008060408385031215612c9057600080fd5b82359150612ca060208401612bea565b90509250929050565b600060018060a01b03808916835260c06020840152612ccb60c08401896128ef565b87604085015260048710612ce157612ce1612935565b866060850152818616608085015283810360a0850152612d0181866128ef565b9a9950505050505050505050565b60008060408385031215612d2257600080fd5b82359150602083013567ffffffffffffffff811115612d4057600080fd5b612d4c85828601612a13565b9150509250929050565b60a081526000612d6960a08301886128ef565b602083019690965250604081019390935290151560608301521515608090910152919050565b60008060008060808587031215612da557600080fd5b84359350602085013567ffffffffffffffff811115612dc357600080fd5b612dcf87828801612a13565b949794965050505060408301359260600135919050565b600060208284031215612df857600080fd5b612e0182612bea565b9392505050565b6020808252825182820181905260009190848201906040850190845b81811015612c7157835183529284019291840191600101612e24565b600181811c90821680612e5457607f821691505b602082108103612e7457634e487b7160e01b600052602260045260246000fd5b50919050565b634e487b7160e01b600052601160045260246000fd5b600060018201612ea257612ea2612e7a565b5060010190565b80820180821115611da857611da8612e7a565b601f8211156111b357600081815260208120601f850160051c81016020861015612ee35750805b601f850160051c820191505b81811015612f0257828155600101612eef565b505050505050565b815167ffffffffffffffff811115612f2457612f246129fd565b612f3881612f328454612e40565b84612ebc565b602080601f831160018114612f6d5760008415612f555750858301515b600019600386901b1c1916600185901b178555612f02565b600085815260208120601f198616915b82811015612f9c57888601518255948401946001909101908401612f7d565b5085821015612fba5787850151600019600388901b60f8161c191681555b5050505050600190811b01905550565b606081526000612fdd60608301866128ef565b60208301949094525060400152919050565b602080825260169082015275141c9bda9958dd08191bd95cc81b9bdd08195e1a5cdd60521b604082015260600190565b8082028115828204841417611da857611da8612e7a565b60008261305357634e487b7160e01b600052601260045260246000fd5b500490565b81810381811115611da857611da8612e7a565b60006020828403121561307d57600080fd5b8151612e0181612b81565b6020808252601390820152722737ba10383937b532b1ba1031b932b0ba37b960691b604082015260600190565b602081526000612e0160208301846128ef565b8381526060602082015260006130e160608301856128ef565b9050826040830152949350505050565b604081016130ff828561294b565b612e01602083018461294b565b634e487b7160e01b600052603260045260246000fdfea2646970667358221220c313d05dca5ec6031d7c3e6916309f73ff956058bd246a7da6b1c6988d68152964736f6c63430008140033",
  "linkReferences": {},
  "deployedLinkReferences": {}
}